:1000000002058075C78175C5018FC4EEFF8FC3756A
:10001000C65A75C6A5007809E5C2F2120573E2FF5B
:0100200022BD
:1000230002044675C78175C5028FC4EEFF8FC3AF47
:0D003300058FC275C65A75C6A5000205737B
:10004300020214BB010689828A83E0225002E7225E
:10005300BBFE02E32289828A83E49322BB010CE57F
:100063008229F582E5833AF583E0225006E9258269
:10007300F8E622BBFE06E92582F8E222E58229F5AD
:1000830082E5833AF583E49322BB010689828A835E
:10009300F0225002F722BBFE01F322EF8DF0A4A859
:1000A300F0CF8CF0A428CE8DF0A42EFE2275F0089C
:1000B300758200EF2FFFEE33FECD33CDCC33CCC5AD
:1000C3008233C5829BED9AEC99E58298400CF582C8
:1000D300EE9BFEED9AFDEC99FC0FD5F0D6E4CEFB3A
:1000E300E4CDFAE4CCF9A88222B800C1B90059BA28
:1000F300002DEC8BF084CFCECDFCE5F0CBF9781856
:10010300EF2FFFEE33FEED33FDEC33FCEB33FB104F
:10011300D703994004EB99FB0FD8E5E4F9FA227869
:1001230018EF2FFFEE33FEED33FDEC33FCC933C97B
:1001330010D7059BE99A4007EC9BFCE99AF90FD885
:10014300E0E4C9FAE4CCFB2275F010EF2FFFEE33A5
:10015300FEED33FDCC33CCC833C810D7079BEC9AE4
:10016300E899400AED9BFDEC9AFCE899F80FD5F06D
:10017300DAE4CDFBE4CCFAE4C8F922EB9FF5F0EA2C
:100183009E42F0E99D42F0E89C45F022E8600FECC6
:10019300C313FCED13FDEE13FEEF13FFD8F122BBE7
:1001A300010DE58229F582E5833AF5830201EB50DF
:1001B30007E92582F80201DEBBFE07E92582F80282
:1001C30001F7E58229F582E5833AF583020204EC1F
:1001D300F208EDF208EEF208EFF222E6FB08E6F988
:1001E30008E6FA08E6CBF822E0F8A3E0F9A3E0FA80
:1001F300A3E0FB22E2FB08E2F908E2FA08E2CBF80B
:1002030022E493F8740193F9740293FA740393FB51
:1002130022C0E0C083C082C0D075D000C000C00639
:10022300C007E59A30E029539AFE7829E2702178D5
:1002330027E2C394804002E4F27827E2FF04F274D9
:10024300AB2FF582E43400F583E59BF0087405F2E7
:10025300E59A30E12A539AFD7825E2FF18E2FE6F12
:10026300601974AB2EF582E43401F583E0F59BE26B
:1002730004F2C394804008E4F280047826E4F2D0C8
:1002830007D006D000D0D0D082D083D0E032C0E0F7
:10029300C083C082C0D075D000C000C006C0073084
:1002A3009828C2987822E270217820E2C394804093
:1002B30002E4F27820E2FF04F2742B2FF582E43497
:1002C30000F583E599F0087405F2309929C299780D
:1002D3001EE2FF18E2FE6F6019742B2EF582E434E0
:1002E30001F583E0F599E204F2C394804008E4F257
:1002F3008004781FE4F2D007D006D000D0D0D0829B
:10030300D083D0E032AD07AC06E4780AF208F27885
:1003130006F208F2D3780BE29D18E29C5057C2868E
:10032300E47806F208F27808E2FFC318E29F18E2C5
:100333009400500F12059408E22401F218E23400ED
:10034300F280E3D286E47806F208F27808E2FFC38B
:1003530018E29F18E29400500F12059408E224015A
:10036300F218E23400F280E3780BE22401F218E29F
:100373003400F2809F22EF24CC601B24FE601B1408
:10038300601E24CA602B24FA602B24F960182447CA
:10039300703B78008006780080087808E204F22237
:1003A3007808E214F222780874A0F278007402F25A
:1003B3002243C76022E4FFFE1204A77F107E0012CF
:1003C30004A7181204B17800E2FF12058C22E47826
:1003D3000AF208F218F208F2C286120516780BE246
:1003E3002401F218E23400F2C308E2946418E294A0
:1003F3000040E520C413C286120527120527120503
:100403001612052712052780EA22E4F5A0F593F5D5
:10041300947596FFF5957F05FE1204BA120530D246
:10042300AFD2AC12055F7FE87E031204BA1203D188
:10043300309409209206209303120479E4FF1204F6
:10044300D180EDC0E0C0D075D000C000C0073099A6
:1004530004C299C200309815C2987805E2FF04F2ED
:10046300740C2FF8E599F27805E2540FF2D007D017
:1004730000D0D0D0E032D2A52094FD7F0A7E0012B6
:1004830004BA7800E2FF7E007C017D9012009E1288
:100493000308C2A51203D130C4FD3094FA12052714
:1004A3001204F5221200037809EFF2120527E2FF86
:1004B30012058C7F647E007D367C07ED1D70011C68
:1004C300144C70F7EF1F70011E144E70EA22782A45
:1004D300EFF21205277805E2FF18E26F6013E2FFDF
:1004E30004F2740C2FF8E2FF1203797804E2540F3C
:1004F300F222E4FFFE1205491205277800E2FDE42B
:10050300FFFE1200261205277808E2FD7F107E0009
:10051300020026120527120527120527D286120587
:10052300271205277F047E1BDEFEDFFC2275985011
:10053300E4F589758BCC758DFFD28E758E40780569
:10054300F218F2C2002275C78175C5038FC4EEFF8E
:100553008FC375C65A75C6A500020573E4FFFE1264
:1005630000037800EFF27F101200037808EFF22205
:10057300E4F5C7F5C5F5C675C380F5C422787FE4F5
:10058300F6D8FD75810702040D2000FDD2008F9976
:06059300227F06DFFE22BC
:00000001FF
