:100000000208BDE4F5A0F593F5947596FFF5957F8C
:1000100064FE1200A912007120C4FD3095FA3094DC
:10002000F77F057E001200A920C4ED12005280E87F
:10003000AD07AC06E4F508F509D3E5099DE5089C94
:10004000500FC28612008F0509E50970EC05088083
:10005000E822D2A52095FD7F0A7E001200A97FD05C
:100060007E07120030C2A51200713095FD3094FA5F
:10007000227F647E00120030209413C2861200A0FA
:100080001200A012008F1200A01200A080EA22121B
:1000900000A01200A01200A0D2861200A01200A0A0
:1000A0007F047E1BDEFEDFFC227D367C07ED1D70AB
:1000B000011C144C70F7EF1F70011E144E70EA22E1
:0C08BD00787FE4F6D8FD75810902000385
:00000001FF
