:100000000200357580FFE4F5A0F593F5947596FF31
:10001000F5951200263094FD3093FA2097F71202DE
:10002000F680F202027F00007F087E4C7DA8DDFE94
:10003000DEFCDFFA22787FE4F6D8FD758107020046
:0100400003BC
:10004300020202BB010689828A83E0225002E72270
:10005300BBFE02E32289828A83E49322BB010CE57F
:100063008229F582E5833AF583E0225006E9258269
:10007300F8E622BBFE06E92582F8E222E58229F5AD
:1000830082E5833AF583E49322BB010689828A835E
:10009300F0225002F722BBFE01F32275F0087582AD
:1000A30000EF2FFFEE33FECD33CDCC33CCC58233FF
:1000B300C5829BED9AEC99E58298400CF582EE9B04
:1000C300FEED9AFDEC99FC0FD5F0D6E4CEFBE4CD22
:1000D300FAE4CCF9A88222B800C1B90059BA002DBC
:1000E300EC8BF084CFCECDFCE5F0CBF97818EF2F75
:1000F300FFEE33FEED33FDEC33FCEB33FB10D703A4
:10010300994004EB99FB0FD8E5E4F9FA227818EF4C
:100113002FFFEE33FEED33FDEC33FCC933C910D7AB
:10012300059BE99A4007EC9BFCE99AF90FD8E0E4B8
:10013300C9FAE4CCFB2275F010EF2FFFEE33FEED8E
:1001430033FDCC33CCC833C810D7079BEC9AE8995E
:10015300400AED9BFDEC9AFCE899F80FD5F0DAE440
:10016300CDFBE4CCFAE4C8F922EB9FF5F0EA9E421A
:10017300F0E99D42F0E89C45F022E8600FECC313E0
:10018300FCED13FDEE13FEEF13FFD8F122BB010DBF
:10019300E58229F582E5833AF5830201D95007E91F
:1001A3002582F80201CCBBFE07E92582F80201E5AE
:1001B300E58229F582E5833AF5830201F2ECF20840
:1001C300EDF208EEF208EFF222E6FB08E6F908E6A4
:1001D300FA08E6CBF822E0F8A3E0F9A3E0FAA3E0FB
:1001E300FB22E2FB08E2F908E2FA08E2CBF822E498
:1001F30093F8740193F9740293FA740393FB22C086
:10020300E0C083C082C0D075D000C000C006C00764
:10021300E59A30E029539AFE780DE27021780BE2DB
:10022300C394804002E4F2780BE2FF04F2748E2F51
:10023300F582E43400F583E59BF0087405F2E59A52
:1002430030E12A539AFD7809E2FF18E2FE6F601944
:10025300748E2EF582E43401F583E0F59BE204F21B
:10026300C394804008E4F28004780AE4F2D007D013
:1002730006D000D0D0D082D083D0E032C0E0C0839B
:10028300C082C0D075D000C000C006C00730982817
:10029300C2987806E270217804E2C394804002E4B5
:1002A300F27804E2FF04F2740E2FF582E43400F5D1
:1002B30083E599F0087405F2309929C2997802E22E
:1002C300FF18E2FE6F6019740E2EF582E43401F517
:1002D30083E0F599E204F2C394804008E4F28004D9
:1002E3007803E4F2D007D006D000D0D0D082D083F8
:1002F300D0E032D2A52093FD120026D2A42094FD93
:10030300120315D2A32095FD120026C2A3C2A4C2D4
:10031300A52200007F017EEA7D71DDFEDEFCDFFAAF
:0103230022B7
:00000001FF
