:10000000020386E4FFFE12065E7801EFF27F101213
:10001000065E78A8EFF27F2012065E782FEFF222BC
:100023000205F575C78375C5028FC4EEFF8FC3AF95
:0D003300058FC275C65A75C6A5000206C528
:1000430002059C78AFEBF208EAF208E9F27830E2B5
:100053006007E47863F27830F27831E270030202E9
:100063000578B574FEF2087400F208746CF27BFE36
:100073007A00791A1202CDEA494B60087800E270DF
:100083000312061D78B574FEF2087400F208747446
:10009300F27BFE7A00791A1202CDEA494B600FD245
:1000A300A57800E214700578011206A2C2A578B5FE
:1000B30074FEF2087400F208747BF27BFE7A007916
:1000C3001A1202CDEA494B60187800E21460080462
:1000D300700F75C760800A7801E214F2E2FF12061E
:1000E300A778B574FEF2087400F208748AF27BFEF6
:1000F3007A00791A1202CDEA494B600C7800E224A7
:10010300FE7005782F1206A278B574FEF20874000B
:10011300F2087491F27BFE7A00791A1202CDEA4951
:100123004B601A7800E224FE600904701078A8E29C
:10013300048004782FE214F2E2FF1206A778B57464
:10014300FEF2087400F2087498F27BFE7A00791AC2
:100153001202CDEA494B60107800E214700A78A8C5
:10016300E214F2E2FF1206A778B574FEF2087400F7
:10017300F208743DF27BFE7A00791A1202CDEA4945
:100183004B6004E47800F278B574FEF2087400F270
:10019300087445F27BFE7A00791A1202CDEA494BC4
:1001A300600578007401F278B574FEF2087400F209
:1001B300087454F27BFE7A00791A1202CDEA494B95
:1001C300600578007402F2E47873F27831F278A96A
:1001D300F2087414F2E478A6F208F278A9E2FE08B1
:1001E300E2FF78A6E2FC08E2FDC39FEC9E50137485
:1001F3001A2DF8E4F278A7E22401F218E23400F2AF
:1002030080D922874D5B424E3A305D00875C5B426A
:100213004E3A315D00876C5B424E3A325D00877423
:100223005B424E3A335D00877B5B424E3A345D005E
:1002330087825B424E3A355D00878A5B424E3A368F
:100243005D0087915B424E3A375D0087985B424E73
:100253003A385D00879F5B424E3A395D0087355BD4
:10026300424E3A325D00883D50414745304F4B0086
:10027300884550414745314F4B00885450414745CD
:10028300324F4B00886450414745334F4B00810048
:1002930000940600000000000000000000000000C1
:1002A30000000000000000941A000000000000009D
:1002B3000000000000000000000000000081630057
:1002C3008173008130008131000078B2EBF208EADB
:1002D300F208E9F208E2FB08E2FA08E2F91205CAB9
:1002E300700302037478B2E2FB08E2FA08E2F9123F
:1002F30005CA700302037F08E2F908E2FA08E2087C
:10030300C9F208EAF208E9F278B2E2F908E2FA0877
:10031300E278BBC9F208EAF208E9F278B8E2FB082E
:10032300E2FA08E2F91205CAFF602708E2FB08E2D5
:10033300FA08E2F91205CA6F701878BAE22401F2DA
:1003430018E23400F278BDE22401F218E23400F23C
:1003530080C978B8E2FB08E2FA08E2F91205CA702C
:1003630002800E78B4E22401F218E23400F20202B1
:10037300E878B2E2FB08E2FA08E2F9227B007A00AD
:10038300790022787FE4F6D8FD7581070203CD0258
:100393000532E493A3F8E493A34003F68001F20843
:1003A300DFF48029E493A3F85407240CC8C333C4AF
:1003B300540F4420C8834004F456800146F6DFE41A
:1003C300800B0102040810204080900206E47E01A5
:1003D3009360BCA3FF543F30E509541FFEE493A38D
:1003E30060010ECF54C025E060A840B8E493A3FA9F
:1003F300E493A3F8E493A3C8C582C8CAC583CAF02B
:10040300A3C8C582C8CAC583CADFE9DEE780BEAD1B
:1004130007AC06E478A9F208F278A6F208F2D378DA
:10042300AAE29D18E29C5057C286E478A6F208F22D
:1004330078A8E2FFC318E29F18E29400500F120657
:10044300D308E22401F218E23400F280E3D286E416
:1004530078A6F208F278A8E2FFC318E29F18E294A4
:1004630000500F1206D308E22401F218E23400F21E
:1004730080E378AAE22401F218E23400F2809F229A
:1004830078AFEFF27802E2601278ACE2B44403751D
:10049300C76078307401F2E47802F27803E26049CD
:1004A30078ACE2783CF2640D6018E2FF640A6012F3
:1004B300EF644B600D7873E2241AF8EFF27873E27D
:1004C30004F2783CE2FF640D6009EF640A6004EF14
:1004D300B44B127873E2241AF8EFF27873E204F261
:1004E30078317401F2E47803F222E478A9F208F295
:1004F30018F208F2C28612064478AAE22401F2181E
:10050300E23400F2C308E2946418E2940040E52068
:100513009313C28612065512065512064412065547
:1005230012065580EA782FE2FF7E0012041222128F
:100533000003E4F5A0F593F5947596FFF59512067F
:100543008D1206B4758E54D2AFD2AC75AF011204BE
:10055300ED30940620920312061DE4FF1204837B00
:10056300007A00790012004680E7E4FFFE12067766
:100573001206557801E2FDE4FFFE1200261206552D
:1005830078A8E2FD7F107E00120026120655782F10
:10059300E2FD7F207E00020026C0E0C0D075D000BF
:1005A300C000E59A30E107539AFD7889E4F2E59AB1
:1005B30030E00D539AFE78ACE59BF27803740FF2AA
:1005C300D000D0D0D0E032BB010689828A83E022FA
:1005D3005002E722BBFE02E32289828A83E493224C
:1005E300EF8DF0A4A8F0CF8CF0A428CE8DF0A42E2C
:1005F300FE22C0E0C0D075D000C000309906C29979
:100603007889E4F230980CC29878ABE599F27802D5
:10061300740FF2D000D0D0D0E032D2A52094FD7870
:1006230001E2FF7E007C017D901205E3120412C2F9
:10063300A51204ED30C4FD3094FA12065512056D6F
:1006430022120655120655120655D2861206551267
:1006530006557F047E1BDEFEDFFC2275C78175C550
:10066300018FC4EEFF8FC375C65A75C6A500AFC20E
:100673001206C52275C78375C5038FC4EEFF8FC3EA
:1006830075C65A75C6A5000206C5759850E4F58966
:10069300758BCC758DFFD28E438E407889F222E222
:1006A30004F2E2FF7889E270FB78897401F28F9992
:1006B30022759A1075D7CC75D6FF438E14E47889CA
:1006C300F222E4F5C7F5C5F5C675C380F5C400226B
:0506D3007F06DFFE229E
:00000001FF
