:100000000207127D367C07ED1D70011C144C70F741
:10001000EF1F70011E144E70EA2241025700410288
:100020005800000208237F647E0012068520C40C5D
:10003000C286120ABAD286120ABA80F1227F06DF7D
:02004000FE229E
:1000430002079E9002B2EBF0A3EAF0A3E9F090025C
:10005300B1EFF06401600302025D90000004F0E47C
:10006300A3F0A3F0A3F0A3F0A3F0A3F09002B5F0E4
:100073009002B5E0FFC394805014740E2FF582E410
:100083003401F583E4F09002B5E004F080E2E490FB
:1000930002B5F09002B5E0FFC394805014740E2FA4
:1000A300F582E43400F583E4F09002B5E004F080D7
:1000B300E29002B2E0FBA3E0FAA3E0F91203C0D39B
:1000C30094C040037F022290000A1203D9B40104B2
:1000D300D2BC8002C2BC1203C0FFE598543F4FF567
:1000E30098EF64C06008EF644060030201D290009F
:1000F300021205207F807E8D7D5B7C0012046A9056
:1001030002B6120550E4FFFE7D01FC9002B6E0F852
:10011300A3E0F9A3E0FAA3E0FBC31204FC40037FCE
:1001230002229002B6E0F8A3E0F9A3E0FAA3E0FB11
:10013300C3E49BFFE49AFE740199FDE498FC9002EA
:10014300B61205509002B2E0FBA3E0FAA3E0F990E7
:1001530000011203D9FB64017038C28E538EFE5323
:1001630089BF5389CF438E409002B6E0FCA3E0FDE4
:10017300A3E0FEA3E0FF780812050D8F8D9002B671
:10018300A3A3A3E0F58BC2AB5389BF538FFDD28EDC
:100193008076EB64027035538EEF438E01538EF7F6
:1001A300438E049002B6E0FCA3E0FDA3E0FEA3E0CF
:1001B300FF780812050D8FD69002B6A3A3A3E0F52E
:1001C300D753AFFB538EF7438E10803C7F022290B0
:1001D30002B2E0FBA3E0FAA3E0F91203C0FF70133D
:1001E3009000081203D9B40105438E20801A538E60
:1001F300DF8015EFB480119000081203D9B4010514
:10020300438780800353877F9002B2E0FBA3E0FA29
:10021300A3E0F99000091203D9B40104D2AC80021F
:10022300C2AC9000071203D9B40104D29C8002C26D
:100233009C90000B1203D954C0FFE5A2543F4FF525
:10024300A290000C1203D990FE01B40106E0441001
:10025300F08004E054EFF07F00229002B1E06402EA
:1002630060030203BF9000077402F0E4A3F0A3F05D
:10027300A3F0A3F0A3F0A3F09002B5F09002B5E0D1
:10028300FFC394805014748E2FF582E43401F583F8
:10029300E4F09002B5E004F080E2E49002B5F0905F
:1002A30002B5E0FFC394805014748E2FF582E434BA
:1002B30000F583E4F09002B5E004F080E29002B22E
:1002C300E0FBA3E0FAA3E0F91203C0FF64C06008F7
:1002D300EF6440600302037F90000A1203D9B40164
:1002E3000543B501800353B5FE1203C0B4C00543F3
:1002F3009A808003539A7F9000021205207F807EAC
:100303008D7D5B7C0012046A9002B6120550E4FFF7
:10031300FE7D01FC9002B6E0F8A3E0F9A3E0FAA3A6
:10032300E0FBC31204FC40037F02229002B6E0F814
:10033300A3E0F9A3E0FAA3E0FBC3E49BFFE49AFE86
:10034300740199FDE498FC9002B6120550538EEFA8
:10035300538EF7438E049002B6E0FCA3E0FDA3E0C6
:10036300FEA3E0FF780812050D8FD69002B6A3A373
:10037300A3E0F5D753AFFB438E1080037F02229097
:1003830002B2E0FBA3E0FAA3E0F99000091203D95B
:10039300B4010543AF01800353AFFE90000712037E
:1003A300D9B40105439A108003539AEF90000B12BE
:1003B30003D95401FFE5BA54FE4FF5BA22BB010637
:1003C30089828A83E0225002E722BBFE02E322896C
:1003D300828A83E49322BB010CE58229F582E583BB
:1003E3003AF583E0225006E92582F8E622BBFE06B1
:1003F300E92582F8E222E58229F582E5833AF5834D
:10040300E49322BB010689828A83F0225002F722F9
:10041300BBFE01F322C5F0F8A3E028F0C5F0F8E530
:1004230082158270021583E038F02275F008758218
:1004330000EF2FFFEE33FECD33CDCC33CCC582336B
:10044300C5829BED9AEC99E58298400CF582EE9B70
:10045300FEED9AFDEC99FC0FD5F0D6E4CEFBE4CD8E
:10046300FAE4CCF9A88222B800C1B90059BA002D28
:10047300EC8BF084CFCECDFCE5F0CBF97818EF2FE1
:10048300FFEE33FEED33FDEC33FCEB33FB10D70310
:10049300994004EB99FB0FD8E5E4F9FA227818EFB9
:1004A3002FFFEE33FEED33FDEC33FCC933C910D718
:1004B300059BE99A4007EC9BFCE99AF90FD8E0E425
:1004C300C9FAE4CCFB2275F010EF2FFFEE33FEEDFB
:1004D30033FDCC33CCC833C810D7079BEC9AE899CB
:1004E300400AED9BFDEC9AFCE899F80FD5F0DAE4AD
:1004F300CDFBE4CCFAE4C8F922EB9FF5F0EA9E4287
:10050300F0E99D42F0E89C45F022E8600FECC3134C
:10051300FCED13FDEE13FEEF13FFD8F122BB010D2B
:10052300E58229F582E5833AF58302059A5007E9C6
:100533002582F802058DBBFE07E92582F80205A690
:10054300E58229F582E5833AF5830205B3ECF0A34E
:10055300EDF0A3EEF0A3EFF022A8828583F0D08321
:10056300D082120573120573120573120573E473B7
:10057300E493A3C583C5F0C583C8C582C8F0A3C5EA
:1005830083C5F0C583C8C582C822E6FB08E6F9081F
:10059300E6FA08E6CBF822E0F8A3E0F9A3E0FAA331
:1005A300E0FB22E2FB08E2F908E2FA08E2CBF822D8
:1005B300E493F8740193F9740293FA740393FB229E
:1005C300EF248E600B24FB701490020E7477800569
:1005D30090020E7472F09002527401F02290025253
:1005E300E024FE601A14602124FE602724046003C3
:1005F30002068490020FEFF09002527402F02290F0
:100603000251EFF0A37403F022900251EFF0A374B0
:1006130005F022EF64186016900250E02410F58272
:10062300E43402F583EFF0900250E004F022EF642B
:1006330018704E9002527406F090020EE0B4721DD0
:10064300900251E0FF7E007B017A02791090020F45
:10065300E0FD9002AAE4F0A3EDF01209EF90020E80
:10066300E0B4771D900251E0FF7E007B017A0279AE
:100673001090020FE0FD9002AAE4F0A3EDF0120A3D
:100683002E22AD07AC06E49002A1F0A3F090029FE6
:10069300F0A3F0D39002A2E09D9002A1E09C506EE3
:1006A300C286E490029FF0A3F0900259E0FEA3E01B
:1006B300FFC39002A0E09F90029FE09E50111200A2
:1006C3003DA3E004F070E290029FE004F080DAD2F0
:1006D30086E490029FF0A3F0900259E0FEA3E0FFAE
:1006E300C39002A0E09F90029FE09E501112003D34
:1006F300A3E004F070E290029FE004F080DA90023D
:10070300A2E004F0708D9002A1E004F080852278CD
:100713007FE4F6D8FD7581070207590209ADE4931A
:10072300A3F8E493A34003F68001F208DFF48029E1
:10073300E493A3F85407240CC8C333C4540F4420D0
:10074300C8834004F456800146F6DFE4800B0102BF
:1007530004081020408090001AE47E019360BCA33B
:10076300FF543F30E509541FFEE493A360010ECF0D
:1007730054C025E060A840B8E493A3FAE493A3F837
:10078300E493A3C8C582C8CAC583CAF0A3C8C582F7
:10079300C8CAC583CADFE9DEE780BEC0E0C083C044
:1007A30082C0D075D000C006C007E59A30E02E5352
:1007B3009AFE90000DE0702590000BE0C3948040FA
:1007C30002E4F090000BE0FF04F0748E2FF582E456
:1007D3003400F583E59BF090000C7405F0E59A3046
:1007E300E131539AFD900009E0FF900008E0FE6FAD
:1007F300601C748E2EF582E43401F583E0F59B9042
:100803000008E004F0C394804009E4F08005900000
:100813000AE4F0D007D006D0D0D082D083D0E03223
:10082300C0E0C083C082C0D075D000C006C007300E
:10083300982DC298900006E07025900004E0C394C0
:10084300804002E4F0900004E0FF04F0740E2FF502
:1008530082E43400F583E599F09000057405F030E7
:100863009930C299900002E0FF900001E0FE6F60B2
:100873001C740E2EF582E43401F583E0F5999000A3
:1008830001E004F0C394804009E4F0800590000384
:10089300E4F0D007D006D0D0D082D083D0E0327B32
:1008A300017A02795B9002AAE4F0A37402F0E4FFF8
:1008B300FE1209EF90025CE0FF900259EEF0A3EF05
:1008C300F0A3E0FDEF5DFF900259EEF0A3EFF07AA5
:1008D30002795B9002AAE4F0A37402F07F1012097C
:1008E300EF90025CE0FF900253EEF0A3EFF0900272
:1008F3005BE0FDEF5DFF900253EEF0A3EFF022907B
:1009030002A4EFF0120AC690000CE0D39400404D0D
:10091300E014F0704890000BE0D39400403AE49068
:1009230002A1F0A3F090000BE0FF9002A1E0FCA372
:10093300E0FDC39FEC9400501F748E2DF58274006C
:100943003CF583E0FF1205C39002A2E004F070D5EA
:100953009002A1E004F080CDE490000BF022A2927B
:10096300E433900257F0A293E433A3F020921512DC
:100973000AC6A292E433FF900257E06F60047C0141
:100983008002E4FC209315120AC6A293E433FF907D
:100993000258E06F60047D018002E4FDECB40107BE
:1009A300EDB401037F01227F0022E4F5A0F593F566
:1009B300947596FFF5957F05FE120003120A6D7F6D
:1009C300057E001200031208A27F647E001200035A
:1009D30012002620C40C309409120961EF6003123F
:1009E3000A97E4FF1209021208A280E7AD07AC06DA
:1009F300C2AF75C78075C501ECF5C3AF058FC4756C
:100A0300C65A75C6A500E5C21204060DBD00010C49
:100A1300740129F9E43AFA9002AA74FFF5F012047A
:100A23001845F070D3120ACFD2AF22AD07AC06C27D
:100A3300AF75C78075C502ECF5C3AF058FC412034C
:100A4300C0F5C275C65A75C6A5000DBD00010C746C
:100A53000129F9E43AFA9002AA74FFF5F012041896
:100A630045F070D3120ACFD2AF229002A47440F0A3
:100A73009002A612055C0001C2009002AB7401F063
:100A8300E49002ADF0A3F0A3F07B017A0279A47F96
:100A930002020046D2A52094FD7F0A7E00120003C5
:100AA300900259E0FEA3E0FF120685C2A5120026BC
:100AB30030C4FD3094FA22120AC6120AC6120AC6BC
:100AC300120AC67F047E1BDEFEDFFC22E4F5C7F5B7
:0A0AD300C5F5C675C3FF75C4FF2208
:00000001FF
