:100000000203D0E4FFFE120716900001EFF07F100C
:100010001207169000A8EFF07F2012071690002F0D
:10002000EFF0220206AC75C78375C5028FC4EEFFE0
:100030008FC3AF058FC275C65A75C6A5000207816A
:1000430002067E9000AFEBF0A3EAF0A3E9F0900084
:1000530030E06009E4900063F0900030F0900031EC
:10006300E070030202339000B57401F0A37400F052
:10007300A3746CF07B017A00791A120311EA494BDD
:100083006009900000E070031206D49000B574017B
:10009300F0A37400F0A37474F07B017A00791A1250
:1000A3000311EA494B6011D2A5900000E0147006D9
:1000B30090000112075BC2A59000B57401F0A37410
:1000C30000F0A3747BF07B017A00791A120311EA22
:1000D300494B601A900000E014600804701075C763
:1000E30060800B900001E014F0E0FF1207609000C5
:1000F300B57401F0A37400F0A3748AF07B017A0055
:10010300791A120311EA494B600E900000E024FEB5
:10011300700690002F12075B9000B57401F0A37472
:1001230000F0A37491F07B017A00791A120311EAAB
:10013300494B601E900000E024FE600B0470139096
:1001430000A8E02405800590002FE014F0E0FF12E2
:1001530007609000B57401F0A37400F0A37498F0E5
:100163007B017A00791A120311EA494B601390005C
:1001730000E014700C9000A8E024FBF0E0FF1207ED
:10018300609000B57401F0A37400F0A3743DF07B9C
:10019300017A00791A120311EA494B6005E49000D1
:1001A30000F09000B57401F0A37400F0A37445F05F
:1001B3007B017A00791A120311EA494B6006900019
:1001C300007401F09000B57401F0A37400F0A374FF
:1001D30054F07B017A00791A120311EA494B600645
:1001E3009000007402F0E4900073F0900031F090FE
:1001F30000A9F0A37414F0E49000A6F0A3F090001B
:10020300A9E0FEA3E0FF9000A6E0FCA3E0FDC39FEE
:10021300EC9E501C741A2DF58274003CF583E4F0B7
:100223009000A7E004F070D69000A6E004F080CE22
:100233002247004D5B424E3A305D0047005C5B4213
:100243004E3A315D0047006C5B424E3A325D0047E7
:1002530000745B424E3A335D0047007B5B424E3A8B
:10026300345D004700825B424E3A355D0047008AA9
:100273005B424E3A365D004700915B424E3A375D32
:10028300004700985B424E3A385D0047009F5B424F
:100293004E3A395D004700355B424E3A325D0048C5
:1002A300003D50414745304F4B00480045504147C2
:1002B30045314F4B0048005450414745324F4B00A6
:1002C30048006450414745334F4B00410000005400
:1002D3000006000000000000000000000000000015
:1002E30000000000000054001A000000000000009D
:1002F3000000000000000000000000000041006357
:1003030000410073004100300041003100009000C3
:10031300B2EBF0A3EAF0A3E9F0A3E0FBA3E0FAA3B6
:10032300E0F912056A70030203BD9000B2E0FBA37B
:10033300E0FAA3E0F912056A70030203C99000B55D
:10034300E0F9A3E0FAA3E0A3C9F0A3EAF0A3E9F07C
:100353009000B2A3E0FAA3E0F99000BBEBF0A3EAAC
:10036300F0A3E9F09000B8E0FBA3E0FAA3E0F912F0
:10037300056AFF60269000BBE0FBA3E0FAA3E0F967
:1003830012056A6F70159000B975F0011205AB90F4
:1003930000BCE475F0011205AB80C99000B8E0FB26
:1003A300A3E0FAA3E0F912056A7002800D9000B38E
:1003B300E475F0011205AB02032D9000B2E0FBA33C
:1003C300E0FAA3E0F9227B007A00790022787FE447
:1003D300F6D8FD758107020417020611E493A3F80A
:1003E300E493A34003F68001F208DFF48029E49349
:1003F300A3F85407240CC8C333C4540F4420C88340
:100403004004F456800146F6DFE4800B0102040841
:1004130010204080900234E47E019360BCA3FF541B
:100423003F30E509541FFEE493A360010ECF54C08F
:1004330025E060A840B8E493A3FAE493A3F8E49317
:10044300A3C8C582C8CAC583CAF0A3C8C582C8CA1F
:10045300C583CADFE9DEE780BEAD07AC06E49000E2
:10046300A9F0A3F09000A6F0A3F0D39000AAE09D1A
:100473009000A9E09C506AC286E49000A6F0A3F025
:100483009000A8E0FFC39000A7E09F9000A6E0942F
:1004930000501112078FA3E004F070E49000A6E06F
:1004A30004F080DCD286E49000A6F0A3F09000A8CC
:1004B300E0FFC39000A7E09F9000A6E094005011D6
:1004C30012078FA3E004F070E49000A6E004F0802C
:1004D300DC9000AAE004F070919000A9E004F080A1
:1004E30089229000AFEFF0900002E060159000AC1D
:1004F300E0B4440375C7609000307401F0E49000E9
:1005030002F0900003E0605E9000ACE090003CF0ED
:10051300640D6020E0FF640A601AEF644B6015907D
:100523000073E0241AF582E43400F583EFF09000C1
:1005330073E004F090003CE0FF640D6009EF640A8F
:100543006004EFB44B1B900073E0241AF582E4348B
:1005530000F583EFF0900073E004F0900031740134
:10056300F0E4900003F022BB010689828A83E02233
:100573005002E722BBFE02E32289828A83E49322AC
:10058300EF8DF0A4A8F0CF8CF0A428CE8DF0A42E8C
:10059300FE22A3F8E0C5F025F0F0E5821582700293
:1005A3001583E0C838F0E822C5F0F8A3E028F0C5C9
:1005B300F0F8E582158270021583E038F022E490AA
:1005C30000A9F0A3F09000A9F0A3F0C2861206FCE4
:1005D3009000AAE004F070069000A9E004F0C39034
:1005E30000AAE094649000A9E0940040DE209313F5
:1005F300C28612070D12070D1206FC12070D120711
:100603000D80EA90002FE0FF7E0012045C221200AE
:1006130003E4F5A0F593F5947596FFF59512074558
:1006230012076F758E54D2AFD2AC75AF011205C1EC
:100633003094062092031206D4E4FF1204E57B00F3
:100643007A00790012004680E7E4FFFE12072F12BA
:10065300070D900001E0FDE4FFFE12002612070DD6
:100663009000A8E0FD7F107E0012002612070D9077
:10067300002FE0FD7F207E00020026C0E0C083C083
:1006830082E59A30E108539AFD900089E4F0E59AF7
:1006930030E00F539AFE9000ACE59BF0900003749A
:1006A3000FF0D082D083D0E032C0E0C083C082306C
:1006B3009907C299900089E4F030980EC29890008F
:1006C300ABE599F0900002740FF0D082D083D0E0B4
:1006D30032D2A52094FD900001E0FF7E007C017DD5
:1006E3009012058312045CC2A51205C130C4FD300B
:1006F30094FA12070D12064C2212070D12070D125F
:10070300070DD28612070D12070D7F047E1BDEFE36
:10071300DFFC2275C78175C5018FC4EEFF8FC375DA
:10072300C65A75C6A500AFC21207812275C7837565
:10073300C5038FC4EEFF8FC375C65A75C6A50002E5
:100743000781759850E4F589758BCC758DFFD28E32
:10075300438E40900089F022E004F0E0FF9000898E
:10076300E070FA9000897401F08F9922759A1075E0
:10077300D7CC75D6FF438E14E4900089F022E4F5BC
:10078300C7F5C5F5C675C380F5C400227F06DFFE35
:010793002243
:00000001FF
